{
  "address": "0x263C1C2555bD8fC7D1d06310A5ff2d52a5Bf2D9D",
  "abi": [
    {
      "inputs": [],
      "stateMutability": "nonpayable",
      "type": "constructor"
    },
    {
      "inputs": [],
      "name": "ReentrancyGuardReentrantCall",
      "type": "error"
    },
    {
      "anonymous": false,
      "inputs": [
        {
          "indexed": true,
          "internalType": "address",
          "name": "emp",
          "type": "address"
        },
        {
          "indexed": false,
          "internalType": "uint64",
          "name": "cycleSeconds",
          "type": "uint64"
        }
      ],
      "name": "EmployeeAdded",
      "type": "event"
    },
    {
      "anonymous": false,
      "inputs": [
        {
          "indexed": true,
          "internalType": "address",
          "name": "emp",
          "type": "address"
        }
      ],
      "name": "EmployeePaused",
      "type": "event"
    },
    {
      "anonymous": false,
      "inputs": [
        {
          "indexed": true,
          "internalType": "address",
          "name": "emp",
          "type": "address"
        }
      ],
      "name": "EmployeeRemoved",
      "type": "event"
    },
    {
      "anonymous": false,
      "inputs": [
        {
          "indexed": true,
          "internalType": "address",
          "name": "emp",
          "type": "address"
        }
      ],
      "name": "EmployeeUpdated",
      "type": "event"
    },
    {
      "anonymous": false,
      "inputs": [
        {
          "indexed": true,
          "internalType": "address",
          "name": "from",
          "type": "address"
        },
        {
          "indexed": false,
          "internalType": "uint256",
          "name": "amount",
          "type": "uint256"
        }
      ],
      "name": "FundedDAO",
      "type": "event"
    },
    {
      "anonymous": false,
      "inputs": [
        {
          "indexed": true,
          "internalType": "address",
          "name": "emp",
          "type": "address"
        },
        {
          "indexed": false,
          "internalType": "uint256",
          "name": "amount",
          "type": "uint256"
        },
        {
          "indexed": false,
          "internalType": "uint64",
          "name": "nextPayday",
          "type": "uint64"
        }
      ],
      "name": "SalaryPaid",
      "type": "event"
    },
    {
      "anonymous": false,
      "inputs": [
        {
          "indexed": true,
          "internalType": "address",
          "name": "to",
          "type": "address"
        },
        {
          "indexed": false,
          "internalType": "uint256",
          "name": "amount",
          "type": "uint256"
        }
      ],
      "name": "Withdraw",
      "type": "event"
    },
    {
      "inputs": [
        {
          "internalType": "address",
          "name": "emp",
          "type": "address"
        },
        {
          "internalType": "externalEuint64",
          "name": "encSalary",
          "type": "bytes32"
        },
        {
          "internalType": "bytes",
          "name": "inputProof",
          "type": "bytes"
        },
        {
          "internalType": "uint64",
          "name": "cycleSeconds",
          "type": "uint64"
        },
        {
          "internalType": "uint64",
          "name": "salaryPerCycleClear",
          "type": "uint64"
        }
      ],
      "name": "addEmployee",
      "outputs": [],
      "stateMutability": "nonpayable",
      "type": "function"
    },
    {
      "inputs": [],
      "name": "admin",
      "outputs": [
        {
          "internalType": "address",
          "name": "",
          "type": "address"
        }
      ],
      "stateMutability": "view",
      "type": "function"
    },
    {
      "inputs": [],
      "name": "claimSalary",
      "outputs": [],
      "stateMutability": "nonpayable",
      "type": "function"
    },
    {
      "inputs": [],
      "name": "fundContract",
      "outputs": [],
      "stateMutability": "payable",
      "type": "function"
    },
    {
      "inputs": [],
      "name": "getDAOFunds",
      "outputs": [
        {
          "internalType": "uint256",
          "name": "",
          "type": "uint256"
        }
      ],
      "stateMutability": "view",
      "type": "function"
    },
    {
      "inputs": [
        {
          "internalType": "address",
          "name": "emp",
          "type": "address"
        }
      ],
      "name": "getEmployeeInfo",
      "outputs": [
        {
          "internalType": "euint64",
          "name": "salaryPerCycle",
          "type": "bytes32"
        },
        {
          "internalType": "uint64",
          "name": "cycleSeconds",
          "type": "uint64"
        },
        {
          "internalType": "uint64",
          "name": "lastClaimAt",
          "type": "uint64"
        },
        {
          "internalType": "bool",
          "name": "active",
          "type": "bool"
        }
      ],
      "stateMutability": "view",
      "type": "function"
    },
    {
      "inputs": [
        {
          "internalType": "address",
          "name": "emp",
          "type": "address"
        }
      ],
      "name": "getNextPayday",
      "outputs": [
        {
          "internalType": "uint64",
          "name": "",
          "type": "uint64"
        }
      ],
      "stateMutability": "view",
      "type": "function"
    },
    {
      "inputs": [
        {
          "internalType": "address",
          "name": "emp",
          "type": "address"
        }
      ],
      "name": "pauseEmployee",
      "outputs": [],
      "stateMutability": "nonpayable",
      "type": "function"
    },
    {
      "inputs": [],
      "name": "protocolId",
      "outputs": [
        {
          "internalType": "uint256",
          "name": "",
          "type": "uint256"
        }
      ],
      "stateMutability": "pure",
      "type": "function"
    },
    {
      "inputs": [
        {
          "internalType": "address",
          "name": "emp",
          "type": "address"
        }
      ],
      "name": "removeEmployee",
      "outputs": [],
      "stateMutability": "nonpayable",
      "type": "function"
    },
    {
      "inputs": [],
      "name": "totalPaid",
      "outputs": [
        {
          "internalType": "uint256",
          "name": "",
          "type": "uint256"
        }
      ],
      "stateMutability": "view",
      "type": "function"
    },
    {
      "inputs": [
        {
          "internalType": "address",
          "name": "emp",
          "type": "address"
        },
        {
          "internalType": "uint64",
          "name": "newCycleSeconds",
          "type": "uint64"
        }
      ],
      "name": "updateCycle",
      "outputs": [],
      "stateMutability": "nonpayable",
      "type": "function"
    },
    {
      "inputs": [
        {
          "internalType": "address",
          "name": "emp",
          "type": "address"
        },
        {
          "internalType": "externalEuint64",
          "name": "encSalary",
          "type": "bytes32"
        },
        {
          "internalType": "bytes",
          "name": "inputProof",
          "type": "bytes"
        },
        {
          "internalType": "uint64",
          "name": "newSalaryPerCycleClear",
          "type": "uint64"
        }
      ],
      "name": "updateSalary",
      "outputs": [],
      "stateMutability": "nonpayable",
      "type": "function"
    },
    {
      "inputs": [
        {
          "internalType": "address payable",
          "name": "to",
          "type": "address"
        },
        {
          "internalType": "uint256",
          "name": "amount",
          "type": "uint256"
        }
      ],
      "name": "withdrawUnallocatedFunds",
      "outputs": [],
      "stateMutability": "nonpayable",
      "type": "function"
    },
    {
      "stateMutability": "payable",
      "type": "receive"
    }
  ],
  "transactionHash": "0x65e3c50a486e4d1e7913d376fceebb4561ee5b57df0cf8783e1b2644f0ccf980",
  "args": [],
  "numDeployments": 1,
  "solcInputHash": "2214b4a445ee5d51c8ef25f399a38a4a",
  "bytecode": "0x60a060405234801561000f575f5ffd5b5061018a6100ae604080516080810182525f808252602082018190529181018290526060810191909152506040805160808101825273687820221192c5b662b25367f70076a37bc79b6c815273848b0066793bcc60346da1f49049357399b8d595602082015273a02cda4ca3a71d7c46997716f4283aa851c2881291810191909152731364cbbf2cdf5032c47d8226a6f6fbd2afcdacac606082015290565b80517f9e7b61f58c47dc699ac88507c4f5bb9f121c03808c5676a8078fe583e464970080546001600160a01b03199081166001600160a01b039384161790915560208301517f9e7b61f58c47dc699ac88507c4f5bb9f121c03808c5676a8078fe583e46497018054831691841691909117905560408301517f9e7b61f58c47dc699ac88507c4f5bb9f121c03808c5676a8078fe583e46497028054831691841691909117905560608301517f9e7b61f58c47dc699ac88507c4f5bb9f121c03808c5676a8078fe583e46497038054909216921691909117905550565b60015f55336080526080516116eb6101db5f395f81816103250152818161036a0152818161048b015281816105f60152818161087401528181610a3201528181610b1c0152610ca601526116eb5ff3fe6080604052600436106100dc575f3560e01c8063ce1437b41161007c578063da1f12ab11610057578063da1f12ab146102b3578063e2eafd80146102c7578063e7b0f666146102ff578063f851a44014610314575f5ffd5b8063ce1437b414610261578063d108177a14610280578063d7b92d451461029f575f5ffd5b806399ed730d116100b757806399ed730d146101ff578063a7665cac1461021e578063b9a5b0671461023a578063bd097e2114610259575f5ffd5b806346a1b0931461011c5780635ac09b2b1461013d578063776e82ef146101e0575f5ffd5b366101185760405134815233907f2ab628fc4e491bf6b80448623af5d9dbf1c5d45236c41a9cf2a0e9f4cdef2b5f9060200160405180910390a2005b5f5ffd5b348015610127575f5ffd5b5061013b610136366004611408565b61035f565b005b348015610148575f5ffd5b506101a4610157366004611408565b6001600160a01b03165f90815260026020526040902080546001909101549091600160401b820467ffffffffffffffff90811692600160801b810490911691600160c01b90910460ff1690565b6040516101d7949392919093845267ffffffffffffffff9283166020850152911660408301521515606082015260800190565b60405180910390f35b3480156101eb575f5ffd5b5061013b6101fa36600461143f565b610480565b34801561020a575f5ffd5b5061013b6102193660046114b7565b6105eb565b348015610229575f5ffd5b50475b6040519081526020016101d7565b348015610245575f5ffd5b5061013b610254366004611532565b610869565b61013b610a27565b34801561026c575f5ffd5b5061013b61027b36600461159e565b610b11565b34801561028b575f5ffd5b5061013b61029a366004611408565b610c9b565b3480156102aa575f5ffd5b5061013b610dea565b3480156102be575f5ffd5b5061271161022c565b3480156102d2575f5ffd5b506102e66102e1366004611408565b61117e565b60405167ffffffffffffffff90911681526020016101d7565b34801561030a575f5ffd5b5061022c60015481565b34801561031f575f5ffd5b506103477f000000000000000000000000000000000000000000000000000000000000000081565b6040516001600160a01b0390911681526020016101d7565b336001600160a01b037f000000000000000000000000000000000000000000000000000000000000000016146103c85760405162461bcd60e51b81526020600482015260096024820152682737ba1030b236b4b760b91b60448201526064015b60405180910390fd5b6001600160a01b0381165f9081526002602052604090206001810154600160c01b900460ff1661043a5760405162461bcd60e51b815260206004820152600e60248201527f616c72656164792070617573656400000000000000000000000000000000000060448201526064016103bf565b60018101805460ff60c01b191690556040516001600160a01b038316907f1170ca0b42207067d35ad99d0bf32972481aaa06e94912554ed815d5542cbf96905f90a25050565b336001600160a01b037f000000000000000000000000000000000000000000000000000000000000000016146104e45760405162461bcd60e51b81526020600482015260096024820152682737ba1030b236b4b760b91b60448201526064016103bf565b6001600160a01b0382165f9081526002602052604090206001810154600160c01b900460ff166105435760405162461bcd60e51b815260206004820152600a6024820152696e6f742061637469766560b01b60448201526064016103bf565b5f8267ffffffffffffffff16116105865760405162461bcd60e51b815260206004820152600760248201526606379636c653d360cc1b60448201526064016103bf565b6001810180546fffffffffffffffff00000000000000001916600160401b67ffffffffffffffff8516021790556040516001600160a01b038416907f99d48556be6117b7da7d33c0afce92eb9789b36c8ff5bb604695008834534796905f90a2505050565b336001600160a01b037f0000000000000000000000000000000000000000000000000000000000000000161461064f5760405162461bcd60e51b81526020600482015260096024820152682737ba1030b236b4b760b91b60448201526064016103bf565b6001600160a01b0386166106a55760405162461bcd60e51b815260206004820152600560248201527f656d703d3000000000000000000000000000000000000000000000000000000060448201526064016103bf565b5f8267ffffffffffffffff16116106e85760405162461bcd60e51b815260206004820152600760248201526606379636c653d360cc1b60448201526064016103bf565b5f8167ffffffffffffffff161161072c5760405162461bcd60e51b8152602060048201526008602482015267073616c6172793d360c41b60448201526064016103bf565b5f61076c8686868080601f0160208091040260200160405190810160405280939291908181526020018383808284375f920191909152506111e992505050565b6001600160a01b0388165f90815260026020526040902081815560018101805460ff60c01b194267ffffffffffffffff908116600160801b02919091167fffffffffffffff000000000000000000ffffffffffffffffffffffffffffffff898316600160401b026fffffffffffffffffffffffffffffffff1990941692891692909217929092171617600160c01b179055909150610809826111ff565b508054610816908961120e565b5060405167ffffffffffffffff851681526001600160a01b038916907f4d069e99783333541f2c6fa12f9c692e389a4f109026de5a83a3a414f3dcc4f39060200160405180910390a25050505050505050565b336001600160a01b037f000000000000000000000000000000000000000000000000000000000000000016146108cd5760405162461bcd60e51b81526020600482015260096024820152682737ba1030b236b4b760b91b60448201526064016103bf565b6001600160a01b0385165f9081526002602052604090206001810154600160c01b900460ff1661092c5760405162461bcd60e51b815260206004820152600a6024820152696e6f742061637469766560b01b60448201526064016103bf565b5f8267ffffffffffffffff16116109705760405162461bcd60e51b8152602060048201526008602482015267073616c6172793d360c41b60448201526064016103bf565b5f6109b08686868080601f0160208091040260200160405190810160405280939291908181526020018383808284375f920191909152506111e992505050565b80835560018301805467ffffffffffffffff191667ffffffffffffffff861617905590506109dd816111ff565b5081546109ea908861120e565b506040516001600160a01b038816907f99d48556be6117b7da7d33c0afce92eb9789b36c8ff5bb604695008834534796905f90a250505050505050565b336001600160a01b037f00000000000000000000000000000000000000000000000000000000000000001614610a8b5760405162461bcd60e51b81526020600482015260096024820152682737ba1030b236b4b760b91b60448201526064016103bf565b5f3411610ada5760405162461bcd60e51b815260206004820152600860248201527f616d6f756e743d3000000000000000000000000000000000000000000000000060448201526064016103bf565b60405134815233907f2ab628fc4e491bf6b80448623af5d9dbf1c5d45236c41a9cf2a0e9f4cdef2b5f9060200160405180910390a2565b336001600160a01b037f00000000000000000000000000000000000000000000000000000000000000001614610b755760405162461bcd60e51b81526020600482015260096024820152682737ba1030b236b4b760b91b60448201526064016103bf565b6001600160a01b038216610bb45760405162461bcd60e51b81526004016103bf906020808252600490820152630746f3d360e41b604082015260600190565b5f826001600160a01b0316826040515f6040518083038185875af1925050503d805f8114610bfd576040519150601f19603f3d011682016040523d82523d5f602084013e610c02565b606091505b5050905080610c535760405162461bcd60e51b815260206004820152601360248201527f657468207472616e73666572206661696c65640000000000000000000000000060448201526064016103bf565b826001600160a01b03167f884edad9ce6fa2440d8a54cc123490eb96d2768479d49ff9c7366125a942436483604051610c8e91815260200190565b60405180910390a2505050565b336001600160a01b037f00000000000000000000000000000000000000000000000000000000000000001614610cff5760405162461bcd60e51b81526020600482015260096024820152682737ba1030b236b4b760b91b60448201526064016103bf565b6001600160a01b0381165f90815260026020526040812060018101549091600160801b90910467ffffffffffffffff169003610d7d5760405162461bcd60e51b815260206004820152600b60248201527f756e6b6e6f776e20656d7000000000000000000000000000000000000000000060448201526064016103bf565b6001600160a01b0382165f8181526002602052604080822082815560010180547fffffffffffffff00000000000000000000000000000000000000000000000000169055517fabae6e64cb4315875c29d42347a312f5e9fce4ab564e9722b43dd78d0751135a9190a25050565b610df2611220565b335f9081526002602052604090206001810154600160c01b900460ff16610e485760405162461bcd60e51b815260206004820152600a6024820152696e6f742061637469766560b01b60448201526064016103bf565b6001810154600160401b900467ffffffffffffffff16610e945760405162461bcd60e51b815260206004820152600760248201526606379636c653d360cc1b60448201526064016103bf565b60018101545f90610eb690600160801b900467ffffffffffffffff16426115dc565b60018301549091505f90610edb90600160401b900467ffffffffffffffff16836115ef565b90505f8111610f2c5760405162461bcd60e51b815260206004820152600760248201527f6e6f74206475650000000000000000000000000000000000000000000000000060448201526064016103bf565b60018301545f90610f4890839067ffffffffffffffff1661160e565b90505f8111610f995760405162461bcd60e51b815260206004820152600560248201527f6475653d3000000000000000000000000000000000000000000000000000000060448201526064016103bf565b80471015610fe95760405162461bcd60e51b815260206004820152601660248201527f696e73756666696369656e742044414f2066756e64730000000000000000000060448201526064016103bf565b600184015461100990600160401b900467ffffffffffffffff168361160e565b60018501546110299190600160801b900467ffffffffffffffff16611625565b8460010160106101000a81548167ffffffffffffffff021916908367ffffffffffffffff1602179055508060015f8282546110649190611625565b90915550506040515f90339083908381818185875af1925050503d805f81146110a8576040519150601f19603f3d011682016040523d82523d5f602084013e6110ad565b606091505b50509050806110fe5760405162461bcd60e51b815260206004820152601360248201527f657468207472616e73666572206661696c65640000000000000000000000000060448201526064016103bf565b600185015433907f46f2052c0f636140049d4f319f5f3dc53893e4f6d4488344f9c595924dec049590849061114d9067ffffffffffffffff600160401b8204811691600160801b900416611638565b6040805192835267ffffffffffffffff90911660208301520160405180910390a2505050505061117c60015f55565b565b6001600160a01b0381165f9081526002602052604081206001810154600160401b900467ffffffffffffffff1682036111b957505f92915050565b60018101546111e29067ffffffffffffffff600160401b8204811691600160801b900416611638565b9392505050565b5f6111f683836005611248565b90505b92915050565b5f61120a8230611368565b5090565b5f6112198383611368565b5090919050565b60025f540361124257604051633ee5aeb560e01b815260040160405180910390fd5b60025f55565b7f9e7b61f58c47dc699ac88507c4f5bb9f121c03808c5676a8078fe583e46497015460405163196d0b9b60e01b81525f917f9e7b61f58c47dc699ac88507c4f5bb9f121c03808c5676a8078fe583e4649700916001600160a01b039091169063196d0b9b906112c1908890339089908990600401611658565b6020604051808303815f875af11580156112dd573d5f5f3e3d5ffd5b505050506040513d601f19601f8201168201806040525081019061130191906116c7565b8154604051630f8e573b60e21b8152600481018390523360248201529193506001600160a01b031690633e395cec906044015f604051808303815f87803b15801561134a575f5ffd5b505af115801561135c573d5f5f3e3d5ffd5b50505050509392505050565b5f7f9e7b61f58c47dc699ac88507c4f5bb9f121c03808c5676a8078fe583e46497008054604051635ca4b5b160e11b8152600481018690526001600160a01b03858116602483015292935091169063b9496b62906044015f604051808303815f87803b1580156113d6575f5ffd5b505af11580156113e8573d5f5f3e3d5ffd5b50505050505050565b6001600160a01b0381168114611405575f5ffd5b50565b5f60208284031215611418575f5ffd5b81356111e2816113f1565b803567ffffffffffffffff8116811461143a575f5ffd5b919050565b5f5f60408385031215611450575f5ffd5b823561145b816113f1565b915061146960208401611423565b90509250929050565b5f5f83601f840112611482575f5ffd5b50813567ffffffffffffffff811115611499575f5ffd5b6020830191508360208285010111156114b0575f5ffd5b9250929050565b5f5f5f5f5f5f60a087890312156114cc575f5ffd5b86356114d7816113f1565b955060208701359450604087013567ffffffffffffffff8111156114f9575f5ffd5b61150589828a01611472565b9095509350611518905060608801611423565b915061152660808801611423565b90509295509295509295565b5f5f5f5f5f60808688031215611546575f5ffd5b8535611551816113f1565b945060208601359350604086013567ffffffffffffffff811115611573575f5ffd5b61157f88828901611472565b9094509250611592905060608701611423565b90509295509295909350565b5f5f604083850312156115af575f5ffd5b82356115ba816113f1565b946020939093013593505050565b634e487b7160e01b5f52601160045260245ffd5b818103818111156111f9576111f96115c8565b5f8261160957634e487b7160e01b5f52601260045260245ffd5b500490565b80820281158282048414176111f9576111f96115c8565b808201808211156111f9576111f96115c8565b67ffffffffffffffff81811683821601908111156111f9576111f96115c8565b8481526001600160a01b0384166020820152608060408201525f8351806080840152806020860160a085015e5f60a0828501015260a0601f19601f830116840101915050605483106116b857634e487b7160e01b5f52602160045260245ffd5b82606083015295945050505050565b5f602082840312156116d7575f5ffd5b505191905056fea164736f6c634300081b000a",
  "devdoc": {
    "errors": {
      "ReentrancyGuardReentrantCall()": [
        {
          "details": "Unauthorized reentrant call."
        }
      ]
    },
    "kind": "dev",
    "methods": {},
    "title": "ChainSalary - DAO FHEVM ",
    "version": 1
  },
  "userdoc": {
    "kind": "user",
    "methods": {},
    "notice": "",
    "version": 1
  },
  "storageLayout": {
    "storage": [
      {
        "astId": 39817,
        "contract": "contracts/SalaryManager.sol:SalaryManager",
        "label": "_status",
        "offset": 0,
        "slot": "0",
        "type": "t_uint256"
      },
      {
        "astId": 39978,
        "contract": "contracts/SalaryManager.sol:SalaryManager",
        "label": "totalPaid",
        "offset": 0,
        "slot": "1",
        "type": "t_uint256"
      },
      {
        "astId": 39983,
        "contract": "contracts/SalaryManager.sol:SalaryManager",
        "label": "employees",
        "offset": 0,
        "slot": "2",
        "type": "t_mapping(t_address,t_struct(Employee)39936_storage)"
      }
    ],
    "types": {
      "t_address": {
        "encoding": "inplace",
        "label": "address",
        "numberOfBytes": "20"
      },
      "t_bool": {
        "encoding": "inplace",
        "label": "bool",
        "numberOfBytes": "1"
      },
      "t_mapping(t_address,t_struct(Employee)39936_storage)": {
        "encoding": "mapping",
        "key": "t_address",
        "label": "mapping(address => struct SalaryManager.Employee)",
        "numberOfBytes": "32",
        "value": "t_struct(Employee)39936_storage"
      },
      "t_struct(Employee)39936_storage": {
        "encoding": "inplace",
        "label": "struct SalaryManager.Employee",
        "members": [
          {
            "astId": 39927,
            "contract": "contracts/SalaryManager.sol:SalaryManager",
            "label": "salaryPerCycle",
            "offset": 0,
            "slot": "0",
            "type": "t_userDefinedValueType(euint64)40592"
          },
          {
            "astId": 39929,
            "contract": "contracts/SalaryManager.sol:SalaryManager",
            "label": "salaryPerCycleClear",
            "offset": 0,
            "slot": "1",
            "type": "t_uint64"
          },
          {
            "astId": 39931,
            "contract": "contracts/SalaryManager.sol:SalaryManager",
            "label": "cycleSeconds",
            "offset": 8,
            "slot": "1",
            "type": "t_uint64"
          },
          {
            "astId": 39933,
            "contract": "contracts/SalaryManager.sol:SalaryManager",
            "label": "lastClaimAt",
            "offset": 16,
            "slot": "1",
            "type": "t_uint64"
          },
          {
            "astId": 39935,
            "contract": "contracts/SalaryManager.sol:SalaryManager",
            "label": "active",
            "offset": 24,
            "slot": "1",
            "type": "t_bool"
          }
        ],
        "numberOfBytes": "64"
      },
      "t_uint256": {
        "encoding": "inplace",
        "label": "uint256",
        "numberOfBytes": "32"
      },
      "t_uint64": {
        "encoding": "inplace",
        "label": "uint64",
        "numberOfBytes": "8"
      },
      "t_userDefinedValueType(euint64)40592": {
        "encoding": "inplace",
        "label": "euint64",
        "numberOfBytes": "32"
      }
    }
  }
}